{
  "contractName": "Faucet",
  "abi": [
    {
      "inputs": [
        {
          "internalType": "address",
          "name": "",
          "type": "address"
        }
      ],
      "name": "funders",
      "outputs": [
        {
          "internalType": "bool",
          "name": "",
          "type": "bool"
        }
      ],
      "stateMutability": "view",
      "type": "function",
      "constant": true
    },
    {
      "inputs": [
        {
          "internalType": "uint256",
          "name": "",
          "type": "uint256"
        }
      ],
      "name": "lutFunders",
      "outputs": [
        {
          "internalType": "address",
          "name": "",
          "type": "address"
        }
      ],
      "stateMutability": "view",
      "type": "function",
      "constant": true
    },
    {
      "inputs": [],
      "name": "numOfFunders",
      "outputs": [
        {
          "internalType": "uint256",
          "name": "",
          "type": "uint256"
        }
      ],
      "stateMutability": "view",
      "type": "function",
      "constant": true
    },
    {
      "inputs": [],
      "name": "owner",
      "outputs": [
        {
          "internalType": "address",
          "name": "",
          "type": "address"
        }
      ],
      "stateMutability": "view",
      "type": "function",
      "constant": true
    },
    {
      "inputs": [],
      "name": "test2",
      "outputs": [
        {
          "internalType": "uint256",
          "name": "",
          "type": "uint256"
        }
      ],
      "stateMutability": "view",
      "type": "function",
      "constant": true
    },
    {
      "inputs": [],
      "name": "testNum",
      "outputs": [
        {
          "internalType": "uint256",
          "name": "",
          "type": "uint256"
        }
      ],
      "stateMutability": "view",
      "type": "function",
      "constant": true
    },
    {
      "inputs": [
        {
          "internalType": "address",
          "name": "newOwner",
          "type": "address"
        }
      ],
      "name": "transferOwnership",
      "outputs": [],
      "stateMutability": "nonpayable",
      "type": "function"
    },
    {
      "stateMutability": "payable",
      "type": "receive",
      "payable": true
    },
    {
      "inputs": [],
      "name": "addFunds",
      "outputs": [],
      "stateMutability": "payable",
      "type": "function",
      "payable": true
    },
    {
      "inputs": [],
      "name": "getAllFunders",
      "outputs": [
        {
          "internalType": "address[]",
          "name": "",
          "type": "address[]"
        }
      ],
      "stateMutability": "view",
      "type": "function",
      "constant": true
    },
    {
      "inputs": [
        {
          "internalType": "uint8",
          "name": "index",
          "type": "uint8"
        }
      ],
      "name": "getFunderAtIndex",
      "outputs": [
        {
          "internalType": "address",
          "name": "",
          "type": "address"
        }
      ],
      "stateMutability": "view",
      "type": "function",
      "constant": true
    },
    {
      "inputs": [
        {
          "internalType": "uint256",
          "name": "withdrawAmount",
          "type": "uint256"
        }
      ],
      "name": "withdraw",
      "outputs": [],
      "stateMutability": "nonpayable",
      "type": "function"
    },
    {
      "inputs": [],
      "name": "test1",
      "outputs": [],
      "stateMutability": "nonpayable",
      "type": "function"
    },
    {
      "inputs": [],
      "name": "emitLog",
      "outputs": [
        {
          "internalType": "bytes32",
          "name": "",
          "type": "bytes32"
        }
      ],
      "stateMutability": "pure",
      "type": "function",
      "constant": true
    }
  ],
  "bytecode": "0x608060405234801561001057600080fd5b50336000806101000a81548173ffffffffffffffffffffffffffffffffffffffff021916908373ffffffffffffffffffffffffffffffffffffffff1602179055506064600181905550610d3c806100686000396000f3fe6080604052600436106100c65760003560e01c80636fbbb55d1161007f578063ae28f1ed11610059578063ae28f1ed14610254578063af7f2c9b1461027f578063f2fde38b146102aa578063f42c13bf146102d3576100cd565b80636fbbb55d146101f45780638da5cb5b1461021f578063a26759cb1461024a576100cd565b8063031b3677146100d25780630a93cf331461010f5780631f8947ea1461014c5780632e1a7d4d1461018957806366e41cb7146101b25780636b59084d146101dd576100cd565b366100cd57005b600080fd5b3480156100de57600080fd5b506100f960048036038101906100f49190610868565b6102fe565b60405161010691906108b0565b60405180910390f35b34801561011b57600080fd5b5061013660048036038101906101319190610904565b61031e565b6040516101439190610940565b60405180910390f35b34801561015857600080fd5b50610173600480360381019061016e9190610991565b61035e565b6040516101809190610940565b60405180910390f35b34801561019557600080fd5b506101b060048036038101906101ab9190610991565b610391565b005b3480156101be57600080fd5b506101c7610428565b6040516101d491906109cd565b60405180910390f35b3480156101e957600080fd5b506101f2610432565b005b34801561020057600080fd5b506102096104c2565b6040516102169190610aa6565b60405180910390f35b34801561022b57600080fd5b506102346105bc565b6040516102419190610940565b60405180910390f35b6102526105e0565b005b34801561026057600080fd5b50610269610700565b60405161027691906109cd565b60405180910390f35b34801561028b57600080fd5b50610294610706565b6040516102a191906109cd565b60405180910390f35b3480156102b657600080fd5b506102d160048036038101906102cc9190610868565b61070c565b005b3480156102df57600080fd5b506102e86107dd565b6040516102f59190610ae1565b60405180910390f35b60036020528060005260406000206000915054906101000a900460ff1681565b6000600460008360ff16815260200190815260200160002060009054906101000a900473ffffffffffffffffffffffffffffffffffffffff169050919050565b60046020528060005260406000206000915054906101000a900473ffffffffffffffffffffffffffffffffffffffff1681565b8067016345785d8a00008111156103dd576040517f08c379a00000000000000000000000000000000000000000000000000000000081526004016103d490610b7f565b60405180910390fd5b3373ffffffffffffffffffffffffffffffffffffffff166108fc839081150290604051600060405180830381858888f19350505050158015610423573d6000803e3d6000fd5b505050565b6000600154905090565b60008054906101000a900473ffffffffffffffffffffffffffffffffffffffff1673ffffffffffffffffffffffffffffffffffffffff163373ffffffffffffffffffffffffffffffffffffffff16146104c0576040517f08c379a00000000000000000000000000000000000000000000000000000000081526004016104b790610c11565b60405180910390fd5b565b6060600060025467ffffffffffffffff8111156104e2576104e1610c31565b5b6040519080825280602002602001820160405280156105105781602001602082028036833780820191505090505b50905060005b6002548110156105b4576004600082815260200190815260200160002060009054906101000a900473ffffffffffffffffffffffffffffffffffffffff1682828151811061056757610566610c60565b5b602002602001019073ffffffffffffffffffffffffffffffffffffffff16908173ffffffffffffffffffffffffffffffffffffffff168152505080806105ac90610cbe565b915050610516565b508091505090565b60008054906101000a900473ffffffffffffffffffffffffffffffffffffffff1681565b6000339050600360008273ffffffffffffffffffffffffffffffffffffffff1673ffffffffffffffffffffffffffffffffffffffff16815260200190815260200160002060009054906101000a900460ff166106fd5760006002600081548092919061064b90610cbe565b9190505590506001600360008473ffffffffffffffffffffffffffffffffffffffff1673ffffffffffffffffffffffffffffffffffffffff16815260200190815260200160002060006101000a81548160ff021916908315150217905550816004600083815260200190815260200160002060006101000a81548173ffffffffffffffffffffffffffffffffffffffff021916908373ffffffffffffffffffffffffffffffffffffffff160217905550505b50565b60015481565b60025481565b60008054906101000a900473ffffffffffffffffffffffffffffffffffffffff1673ffffffffffffffffffffffffffffffffffffffff163373ffffffffffffffffffffffffffffffffffffffff161461079a576040517f08c379a000000000000000000000000000000000000000000000000000000000815260040161079190610c11565b60405180910390fd5b806000806101000a81548173ffffffffffffffffffffffffffffffffffffffff021916908373ffffffffffffffffffffffffffffffffffffffff16021790555050565b60007f48656c6c6f000000000000000000000000000000000000000000000000000000905090565b600080fd5b600073ffffffffffffffffffffffffffffffffffffffff82169050919050565b60006108358261080a565b9050919050565b6108458161082a565b811461085057600080fd5b50565b6000813590506108628161083c565b92915050565b60006020828403121561087e5761087d610805565b5b600061088c84828501610853565b91505092915050565b60008115159050919050565b6108aa81610895565b82525050565b60006020820190506108c560008301846108a1565b92915050565b600060ff82169050919050565b6108e1816108cb565b81146108ec57600080fd5b50565b6000813590506108fe816108d8565b92915050565b60006020828403121561091a57610919610805565b5b6000610928848285016108ef565b91505092915050565b61093a8161082a565b82525050565b60006020820190506109556000830184610931565b92915050565b6000819050919050565b61096e8161095b565b811461097957600080fd5b50565b60008135905061098b81610965565b92915050565b6000602082840312156109a7576109a6610805565b5b60006109b58482850161097c565b91505092915050565b6109c78161095b565b82525050565b60006020820190506109e260008301846109be565b92915050565b600081519050919050565b600082825260208201905092915050565b6000819050602082019050919050565b610a1d8161082a565b82525050565b6000610a2f8383610a14565b60208301905092915050565b6000602082019050919050565b6000610a53826109e8565b610a5d81856109f3565b9350610a6883610a04565b8060005b83811015610a99578151610a808882610a23565b9750610a8b83610a3b565b925050600181019050610a6c565b5085935050505092915050565b60006020820190508181036000830152610ac08184610a48565b905092915050565b6000819050919050565b610adb81610ac8565b82525050565b6000602082019050610af66000830184610ad2565b92915050565b600082825260208201905092915050565b7f43616e6e6f74207769746864726177206d6f7265207468616e20302e3120657460008201527f6865720000000000000000000000000000000000000000000000000000000000602082015250565b6000610b69602383610afc565b9150610b7482610b0d565b604082019050919050565b60006020820190508181036000830152610b9881610b5c565b9050919050565b7f4f6e6c79206f776e65722063616e2063616c6c20746869732066756e6374696f60008201527f6e00000000000000000000000000000000000000000000000000000000000000602082015250565b6000610bfb602183610afc565b9150610c0682610b9f565b604082019050919050565b60006020820190508181036000830152610c2a81610bee565b9050919050565b7f4e487b7100000000000000000000000000000000000000000000000000000000600052604160045260246000fd5b7f4e487b7100000000000000000000000000000000000000000000000000000000600052603260045260246000fd5b7f4e487b7100000000000000000000000000000000000000000000000000000000600052601160045260246000fd5b6000610cc98261095b565b91507fffffffffffffffffffffffffffffffffffffffffffffffffffffffffffffffff8203610cfb57610cfa610c8f565b5b60018201905091905056fea264697066735822122002984bd508c4e52578c60f720f2f78fcc6c1b45a04fff8b32c2434ba832286d964736f6c634300080d0033",
  "immutableReferences": {},
  "source": "// SPDX-License-Identifier: MIT\npragma solidity >=0.4.22 <0.9.0;\n\nimport \"./Owned.sol\";\nimport \"./Logger.sol\";\nimport \"./IFaucet.sol\";\n\ncontract Faucet is Owned, Logger, IFaucet {\n    // Storage variables\n    // uint public funds = 1000; // positive values only; uint means uint256 can store a value 2^256 - 1\n    // int public counter = -10;\n\n    uint public numOfFunders;\n\n    mapping(address => bool) public funders;\n    mapping(uint => address) public lutFunders;\n\n    modifier limitWithdraw(uint withdrawAmount) {\n        require(withdrawAmount <= 100000000000000000, \"Cannot withdraw more than 0.1 ether\");\n        _;\n    }\n\n    // Types of variables\n    // public - can be reacheble everywhere\n    // private - can be accesible only within smart contract. Can't be seen in deployedBytecode\n    // internal - can be accesible within smart contract and also derived smart contract\n\n    // This is special function\n    // It's called when you make the tx that doesn't specify\n    // function name to call\n    // Allows to receive eth to smart contract\n    receive() external payable {}\n    // Adding eth to smart contract\n    function addFunds() external override payable {\n        address funder = msg.sender;\n        \n        if (!funders[funder]) {\n            uint index = numOfFunders++;\n            funders[funder] = true;\n            lutFunders[index] = funder;\n        }\n    }\n\n    function getAllFunders() external view returns(address[] memory){\n        address[] memory _funders = new address[](numOfFunders);\n\n        for(uint i = 0; i < numOfFunders; i++){\n            _funders[i] = lutFunders[i];\n        }\n\n        return _funders;\n    }\n\n    // function getFunders() public view returns(address[] memory) {\n    //     return funders;\n    // }\n\n    // External functions are part of the contarct interface\n    // which means thay can be called via contracts and othet txs\n\n    // External functions can't be called inside the contract\n    // we can call this function with \"this\" keyword but it takes more gas consumption\n    // Public functions can be called inside the contract\n    function getFunderAtIndex(uint8 index) external view returns(address) {\n        return lutFunders[index];\n    }    \n\n    // pure, view - read only, no gas fee\n    // view - it indicates that the function will not modify the storage state\n    // pure - even more strict, indicating that it won't even read the storage state\n    // function testing() external pure returns(uint) {\n    //     return 2 + 2;\n    // }\n\n    // Transactions (can generate state changes) require gass fee\n\n    function withdraw(uint withdrawAmount) external override limitWithdraw(withdrawAmount) { \n        payable (msg.sender).transfer(withdrawAmount);\n    }\n\n    function test1() external onlyOwner {\n\n    }\n\n    function emitLog() public override pure returns(bytes32) {\n        return \"Hello\";\n    }\n}\n\n// truffle migrate --reset\n// truffle console\n// const i = await Faucet.deployed()\n// i.addFunds({value: 2000000000000000000, from: accounts[0]})\n// i.withdraw(\"1000000000000000000\", {from: accounts[1]})",
  "sourcePath": "/Users/admin/Education/web3/faucet/contracts/Faucet.sol",
  "compiler": {
    "name": "solc",
    "version": "0.8.13+commit.abaa5c0e.Emscripten.clang"
  },
  "schemaVersion": "3.4.7",
  "updatedAt": "2022-05-02T19:46:59.943Z",
  "networkType": "ethereum",
  "devdoc": {
    "kind": "dev",
    "methods": {},
    "version": 1
  },
  "userdoc": {
    "kind": "user",
    "methods": {},
    "version": 1
  }
}